:020000040000FA
:10000000B0500020ED010000F5010000F7010000F4
:100010004E75424C0070000000000000B2FABDB303
:1000200000000000000000000000000009020000C5
:1000300000000000000000000B0200000D020000A4
:100040000F0200000F0200000F0200000F0200006C
:100050000F0200000F0200000F0200000F0200005C
:100060000F0200000F0200000F0200000F0200004C
:100070000F0200000F0200000F0200000F0200003C
:100080000F0200000F0200000F0200000F0200002C
:100090000F0200000F0200000F0200000F0200001C
:1000A0000F0200000F0200000F0200000F0200000C
:1000B0000F0200000F0200000F0200000F020000FC
:1000C0000F0200000F0200000F0200000F020000EC
:1000D0000F0200000F0200000F0200000F020000DC
:1000E0000F0200000F0200000F0200000F020000CC
:1000F0000F0200000F0200000F0200000F020000BC
:100100000F0200000F0200000F0200000F020000AB
:100110000F0200000F0200000F0200000F0200009B
:100120000F0200000F0200000F0200000F0200008B
:100130000F0200000F0200000F0200000F0200007B
:10014000810F00000F0200000F0200000F020000EC
:100150000F0200000F0200000F02000075060000F1
:100160000F0200000F0200000F0200000F0200004B
:100170000F0200000F0200000F0200000F0200003B
:100180000F0200000F0200000F0200000F0200002B
:100190000F0200000F0200000F0200000F0200001B
:1001A0000F0200000F0200000F0200000F0200000B
:1001B0000F0200000F0200000F0200000F020000FB
:1001C0000F0200000F0200000F0200007D0F000070
:1001D0000F0200000F0200000348854600F090F86F
:1001E00000480047D1360000B05000200C4880473E
:1001F0000C480047FEE77046EFF30881EFF30982F1
:10020000094B98470047FEE7FEE7FEE7FEE7FEE7FB
:10021000ABBE064B7446984720477046F047000037
:10022000A11E0000D9010000E50C0000391D0000EE
:1002300003460B439B0703D009E008C9121F08C0FF
:10024000042AFAD203E00B780370401C491C521EAA
:10025000F9D27047D2B201E00270401C491EFBD2B5
:1002600070470022F6E710B513460A4604461946C1
:10027000FFF7F0FF204610BD421C0178401C00290A
:10028000FBD1801A704730B504460020034600E0D9
:100290005B1C934203D2E05CCD5C401BF8D030BDC8
:1002A000F0B51FB40646002082B0054640240191F7
:1002B00000901BE0019922460F46304600F042F8BC
:1002C000049A059B801A994110D31046194622467C
:1002D00000F028F8361A8F410197224601200021AC
:1002E000009F00F01FF838184D4100902046641E12
:1002F0000028DFDC019B00982946324607B0F0BD9C
:10030000064C0125064E05E0E36807CC2B430C3C68
:1003100098471034B442F7D3FFF762FF1847000044
:100320003847000010B5202A04DB0146203A9140EE
:10033000002010BD914020239C1A0346E34019433E
:10034000904010BD10B5202A04DB0846203AD0406A
:10035000002110BD0B46D340D0402024A21A91406A
:100360000843194610BD10B500211F2205E0835C2B
:10037000445C84544354521E491C0F2AF7D110BDCB
:100380001F21014001228A40800F8000E949435823
:10039000134343507047C04696490A6802430A60B7
:1003A0007047C046B0B526480268836B0521090432
:1003B0000B4201D0002112E0990322490FD41C0402
:1003C000A40F214D2C5D9D04ED0E6D1C6543DB05D6
:1003D0009B0D1E4C5C436118B1FBF5F189001C4B71
:1003E0001960846807232340022B18D0012B0DD1FC
:1003F00002231A4048F20001164C5AB902681A4307
:100400000260226804689C43046004E0990012A220
:10041000515804E02268120601D547F60051806960
:100420000F220240501CB1FBF0F01949086012493C
:100430004118124AB1FBF2F1114A1160B0BDC04639
:1004400008020040001BB70058420000C0C62D0043
:100450000800002000110440001BB70000800000CD
:10046000000000001027000000000000006CDC020B
:1004700000000000001BB70020A1070040420F0051
:100480000400002080B501F0F7FC0148006880BD41
:1004900000000020574800680121014049423848C7
:1004A00008407047810AC9B261B18205D20E9140FD
:1004B000000C0C2303406448C058034BC05808404C
:1004C000D040704700207047200200401B4941186F
:1004D000032910D8880001A21018874600F006B83A
:1004E00000F01BB800F01EB800F021B814480168F5
:1004F0000120084070470101490F1DD0C201D20EF2
:100500009140800E0C2303405048C0580C4BC0183B
:10051000083800680840D0407047094800688007E4
:10052000C00F704706480068C005C00F70470448F8
:1005300000688005C00F704700207047F0FFFF7F04
:10054000180200400D48016805200004014201D056
:100550000020704788030A480FD40A04920F094B01
:100560009A5C8B04DB0E5B1C5343C905890D064A5C
:100570004A431018B0FBF3F080007047400200407F
:10058000001BB70058420000C0C62D00FEB5029106
:100590000446184F3D6D38680421019108433860C6
:1005A0001026304600F054F83969072001433961BC
:1005B000114B0F3311490A681A400A603A6A0F2337
:1005C0009A43029B1A433A623540052C06D10A68C9
:1005D000094B1A4040F2031313430B6039698143FE
:1005E0002143396101F048FC1DB9386801998843FD
:1005F0003860FEBD00020040F0FEFFFF4CC000402E
:1006000070B5830ADCB20F4B64B18505ED0EAC40CA
:10061000050C0C262E400C4DAD59ED182E69A64345
:1006200016432E610201520F0BD0C401E40EA2400A
:10063000800E0C24044005480059C45894430C43D0
:10064000C45070BD10020040384200002842000033
:10065000B0B50146054A064B012000241D680D4037
:100660008D4202D0521CF9D12046B0BDFF60DBFFA5
:100670005002004004480168890704D00349012260
:100680000A6003210160704704200340A830002065
:10069000BFB5029001915648016841F20003194329
:1006A0000160954801681943016001689943016040
:1006B00090489249016040210165016801230B4384
:1006C00003600021212330E0019C3F2C01DC019CD0
:1006D00004654468E40328D5029C24680094029CC5
:1006E000241D0294019C241F0194019C002C00DC19
:1006F0000191019C14B1009C446516E004681C4300
:100700000460009C44654468E407FCD1039109E05F
:10071000039CA4002418A468039DAD005451039CBD
:10072000641C0394039C072CF2DD019C012CCBDAA2
:10073000BFBDC046040200407FB55B180290019324
:100740002B4B1C6841F200052C431C606A4B1C6853
:100750002C431C601C68AC431C60664B674C1C60DF
:1007600040241C651C68012525431D600818089954
:10077000002438E0019D3F2D01DC019D1D655D6871
:10078000ED0330D5029D954203D2029D854200D3F0
:100790000292029D2D680095029D2D1D0295019DDE
:1007A0002D1F0195019D002D00DC0194019D15B1C7
:1007B000009D5D6517E01D6821262E431E60009D8B
:1007C0005D655D68ED07FCD1039409E0039DAD0014
:1007D000ED18AD68039EB6008D51039D6D1C039509
:1007E000039D072DF2DD019D012DC3DA7FBDC046BB
:1007F00004020040F0B5FFB08EB00C46074603A8D7
:1008000001263946324602F06FFA10B103F0F8F8CB
:1008100057E0069D2CA039462A4642F2000303F019
:10082000F9F9344F00233B603348016841F200027C
:1008300011430160016891430160304838604020F5
:100840003865386830433860019302932C4E30E0AD
:10085000029860B942F20000029003A802AB314650
:1008600042F2000202F0E0FA0028314624D13F2D86
:1008700000DC3D657868C0031BD501C9029A121FD0
:1008800002922D1F012D01DB786512E03A682123C9
:1008900013433B6078657868C007FCD11F20C043D4
:1008A00004E02218C3199B6A1362001D0028F8D1C6
:1008B000019D012DCCDA01E003F0A2F803A802F0BB
:1008C0002DF97FB00EB0F0BD6F70656E2066696C5B
:1008D000652025732C202073697A65203D202564CE
:1008E0002C206275662073697A65203D2025640A94
:1008F0000000000000230340080000400004C00086
:10090000A8100020E8492222CA604860012008613E
:100910000869C007FCD10868400601D40020704770
:100920000868402202430A600020C0437047C04666
:10093000DD48016801220A43026070471E49002217
:100940008A6008600120C860C868C007FCD1486898
:100950007047C046F0B50126F343FF2801D9184679
:10096000F0BD154C4025A56031273F04C000C019DB
:10097000206000206060E660E66BF607FCD1E66B65
:10098000760605D4E36F0B60044909681160F0BD79
:10099000E06B2843E063581CF0BDC04684C00040B3
:1009A000054A21239360106051600120D060D06817
:1009B000C007FCD17047C04604C00040F0B5FFB08E
:1009C000D8B017460D46064644A82021FFF749FC3B
:1009D00014A8C0242146FFF744FC4DA80122294653
:1009E00002F082F910B103F00BF846E00396509E36
:1009F00092482946324603F00DF9C02E37D14C9467
:100A00004DA89B494CAB224602F00EFA0028EAD1D1
:100A10004DA802F083F814AD9549C0222846FFF78F
:100A200007FC44A902910398FFF7E4FE0CA801908B
:100A300020242946224601F013FA2946203104AE2B
:100A40003046224601F00CFA284601993246029BB4
:100A500001F086FB002816DB86A0039903F0DAF884
:100A60008F48C06D2C99814212D29C4803E04DA85A
:100A700002F054F872A003F055FB0020C54328464D
:100A80007FB058B0F0BD9648039903F0C3F8F4E77F
:100A90000024E543279848F2000210B126999142BC
:100AA000EDD3299911B1289B9342E8D3CFB17D4A68
:100AB00010B126989042E2D311B128989042DED32B
:100AC000FFF736FF7848016808220A430260684E43
:100AD000304647F6000140F60002FFF7A9FBC0369A
:100AE0000EE0FFF725FF7048016808220A43026004
:100AF0005F4E304647F6000140F60002FFF798FBD4
:100B000014A9C0223046FFF793FB47F60000FFF719
:100B1000F9FE6648471C704E08E05548015947F6F3
:100B2000000024182046FFF73BFFA419BC42F4D371
:100B30004DA80122039C214602F0D6F800287AD164
:100B4000279E3E482146324603F064F858A003F041
:100B500061F85A48269F074027E042F2000086428B
:100B6000324601D342F200024C924DA84CAB4049B0
:100B700002F05AF900285ED1039600260EE04B4899
:100B8000044205D12046FFF7BDFE2E2003F0C2FA35
:100B9000374881592046FFF703FF361DBC194C9892
:100BA0008642ECD3039E361A2746002ED5D1444800
:100BB00003F0B8FA2998C8B327994DA801F0BCFFF3
:100BC000299E40A003F026F8289F3C4807400020BB
:100BD000029026E042F200008642324601D342F201
:100BE00000024C924DA84CAB214902F01DF910BBFC
:100BF0000396029E0EE02D48044205D12046FFF7E1
:100C000081FE2E2003F086FA194881592046FFF70D
:100C1000C7FE361DBC194C988642ECD3039E361A8B
:100C20002746002ED6D1264803F07CFA4DA801F0C5
:100C300075FF002523E702F0E3FE20E7B143000043
:100C40004552523A204669726D7761726520696E2D
:100C5000666F726D6174696F6E2066696C6520697C
:100C600073206E6F7420636F72726563742100006D
:100C7000A8100020257320766572696679202E2ED3
:100C80002E2E2E2E2E2E2E2E2E2E2E2E2E2E2E2E84
:100C90002E2E2E20504153534544210A00000000BF
:100CA000007800000000041000C00040FF070000B2
:100CB000757064617465696E67200000FFFFFF0F47
:100CC000F2430000757064617465696E6720726537
:100CD00067696F6E203120000488FFFFCA4300005F
:100CE00088430000F0B587B014464027074017B18D
:100CF000400700D40C46714803F014FA70A003F0CA
:100D000011FA01231E07A16908463040C0190A885C
:100D100004D1984802F07EFF974803E0734882426E
:100D200008D1934803F0FEF900F028F9634803F076
:100D3000F9F9FEE7100B0528069303D1100512D52B
:100D40006C4811E04EF20003134046F20005AB423E
:100D500005D0092800D181E0082800D08AE01005DC
:100D60001BD564481AE06248059010091C23034013
:100D7000E05893065B0F9D00655945190720104008
:100D8000834203D1684628C05C4804E080002058B4
:100D90006B4621C35848059B1AE05548039007202D
:100DA000104093065B0F04939D006559059555050A
:100DB000ED0E059B5D19049B984203D1684628C03F
:100DC0004E4804E0800020586B4621C34A48039BEC
:100DD00002F020FF97B1B542A6D900215148524AEE
:100DE00009E043689B199D4203D303699B199D4207
:100DF00045D3491C0C309142F3D395E70021494873
:100E0000494A0EE043689D4202D30469A5420BD3D0
:100E10009B199D4203D303699B199D4211D3491C21
:100E20000C309142EED37FE7017A1F220A40069BE5
:100E30009340490989003D4A89580B422CD03D49CD
:100E40002BE0017A1F220A40069B93404909890042
:100E5000364A89580B4223D0364922E090091C2398
:100E60000340E058D3B25D186B4621C310051BD573
:100E7000204B1AE022A0114602F0CCFE54E7017A82
:100E80001F220A40069B934049098900274A895836
:100E90000B420CD027490BE02549026826A009E047
:100EA00023490268304805E0114B134890E7204978
:100EB00002682E4802F0AEFE36E7C046004500004C
:100EC0002020202020202020202020202020202022
:100ED000202020202020203C3C3C20486172644699
:100EE00061756C74203E3E3E00000000ABBE000009
:100EF000B8460000B44600006844000047440000C3
:100F00002020556E657870656374656420696E7322
:100F10007472756374696F6E3A2030782530347856
:100F2000200A0000300400205303000000F00240BB
:100F3000F7460000FE4600002020496C6C656761A2
:100F40006C2061636365737320746F2025732025A3
:100F50007320696E204E6F6E7365637572652063D2
:100F60006F64652E0A000000F84300008A44000008
:100F7000D2460000CD44000044450000FEE70000DA
:100F80007CB52D4DA868C00703D028680121014316
:100F90002960E86A01900198C00703D02748012121
:100FA0000170E9620198C00525D540F200160020C5
:100FB0000090234802E00099491C00910099814269
:100FC000F9DDE86A01900198C0030CD423A003F076
:100FD000A9F8264C204640F2001100F045FA2046C0
:100FE00000F0B2FA06E017A003F09CF81A481821A6
:100FF000FFF737F9EE620198800705D501980007E1
:1010000000D501980220E8620198800407D542F2D9
:10101000000417A003F086F8E86A2043E86201980C
:10102000C00407D541F2000419A003F07BF8E86A78
:101030002043E8627CBDC04600D80040B9070020CC
:10104000FF0400000A2020436172642072656D6F06
:101050007665642100000000C40700202020436161
:10106000726420696E7365727421000000D00040C4
:101070002A2A2A2A2A204953523A2064617461207C
:10108000696E2074696D656F757420210000000021
:101090002A2A2A2A2A204953523A20726573706FED
:1010A0006E736520696E2074696D656F757420219B
:1010B0000000000010B50146134A835801205B0070
:1010C00007D51A4A8958C90309D5E349002008758C
:1010D00010BD8A18830712681A4203D010BDDE497A
:1010E000087510BD40F620028858802318438850A8
:1010F0000E480858012424040440200CF44C2075A8
:101100008C589C438C5010BD2808000040F62001EC
:101110004118064A801840220B6813430B600B6885
:101120005B06FCD403681B06F6D570472C0800004C
:10113000F0B585B00446E64E3269092101AB00F0F6
:1011400063FBF068C11E334F019801292AD8800F34
:10115000032834D332690721002520462B4600F0AE
:1011600001FB40F208402C4921502C48275008210F
:1011700020462A4600F082FB002848D1264D072150
:101180000022204600F0AAFB40F620002158402211
:101190000A432250201801684906FCD4D42028585C
:1011A00041081DE0800F02981DD001A949898006E1
:1011B000800A08184002C019401C410023E003982F
:1011C0008103490F04228A40800F02998B051B0D71
:1011D0001818401C50430903090F8840810A400A2F
:1011E000B061F16111E003998A03520F0423934027
:1011F000890F8205120D8918491C59430003000FFD
:101200008140880A490AB161F061781C306205B0FA
:10121000F0BDC046FF010000500E0020380800005D
:10122000F0B58DB0044640F2001640F200112C31AA
:1012300000F03AFC40F62000215820220A432250B8
:101240002018E24F397D0268920603D50029FAD1B1
:10125000DD4DFDE0002120460A4600F03FFB41F253
:10126000000001E00C98401E0C900C980028F9D169
:1012700001253D7179480690069B40F200125532D7
:101280000821204600F06EFA0C900C980028049477
:10129000059535D0002120460A4600F01FFB0C962C
:1012A00002E00C98401E0C900C980028F9D1069B87
:1012B0003721002520462A4600F054FA0C900C985D
:1012C00002284FD10021204603910A4600F006FB78
:1012D0000C9602E00C98401E0C900C980028F9D156
:1012E000059D3D70069B5F4E20462946324600F024
:1012F00039FA022841D10398F860B348451CA7E0A9
:10130000069B372126463C46002230460391029236
:1013100000F028FA3D70069B2F462925514A304699
:10132000294600F01FFA40F630003418FE05049FED
:101330000EE0069B38460399029A00F013FAA34880
:1013400005990170069B38462946464A00F00AFA7C
:1013500020683042EDD040020AD5059D2846FC4F5A
:10136000049C4DE00C98E8B1FD60F848451D6FE025
:101370000220F74F049C059D42E040F630002418FF
:10138000ED0506E005993970069B0498324600F099
:10139000E9F920682842F5D04002049C059D2ED52D
:1013A00004202DE02546059C3C70069B29212C4AF3
:1013B0002846029100F0D6F940F630002818039034
:1013C000E6050220019037250027049C0EE0069BCD
:1013D000204629463A4600F0C5F9DD4805990170D6
:1013E000069B204602991E4A00F0BCF9039800684B
:1013F0003042ECD0D64F049C059D019800E00320BC
:10140000F8600221002207AB204600F0FDF9F868E1
:10141000C01E01280BD82E04032100252046324689
:101420002B4600F09FF90B9050B93E6110E003216C
:10143000002520462A462B4600F094F90B9008B16F
:101440000B9D05E040F630002058000A000438618A
:1014500028460DB0F0BDC046B8070020FFFF0F00C2
:101460000080FF000080FF40F8B50091044640F284
:10147000004002272750201840F600016618016836
:101480008907FCD401250560032030603068C0075F
:10149000FCD1F9480C301821FEF7E3FE37600D4807
:1014A0002158AA07009B9B0501D5914300E01143F9
:1014B0002150215840F200120A432250316A44F26E
:1014C000000001433162316A0142FCD1F8BDC046DF
:1014D000B80700202808000010B50446FFF7C4FF35
:1014E000204600F031F828B10EA010BC02BC8E4698
:1014F00002F018BE1049002088703A204870012080
:10150000000704430D48844203D1302008700C4882
:1015100002E0312008700B48012210BC08BC9E4636
:1015200001F0BABB534420696E697469616C20662E
:1015300061696C2121000000480E002000D000509D
:10154000E0090020140C0020F8B504461D480025D1
:10155000255040F6200021580F22120691432150B9
:101560002158092212060A4322502158FF22120450
:10157000914321502158012632040A432250215818
:1015800048F20002914321502046FFF793FD48B1F5
:101590002046FFF745FE98B9E04FF868032803D1CD
:1015A0000C4902E0DE480BE0094900F07DFA2046D4
:1015B000FFF7BEFD204600F0B5F908B9BE60284629
:1015C00001B0F0BD040800001001FFFFB8070020C3
:1015D000A8610000204E0000F0B58BB00646002048
:1015E0000A90CF4873B1144605910693CB4F3A69E0
:1015F0000721002530462B4600F0B4F8079018B1BB
:10160000079D7AE0C51C78E0049540F62005304639
:10161000FFF77CFD4F4850493150F86801283146AA
:1016200005D00428069B049E03D0640201E0069BBB
:10163000049E48190390B7480C5040F208400191AD
:10164000059A0A50FF22B3FBF2F002900890387D11
:10165000130401210591B2498D1D25E07E70039E82
:1016600034683E490C400994099C1C4309940A992A
:10167000099C19B104210C43346004E038490C433F
:10168000346005990A91797821B9797811B90028DF
:10169000F9D131E0F16849072FD5F168090735D54F
:1016A0000899491E0891049E089C002CD6D10299E5
:1016B0004A430699891A0891089951B37E70039C90
:1016C0002168264A1140099109999943099108997D
:1016D0000904099A0A4309920A9A09991AB104223B
:1016E0001143216004E01E4A1143216005990A91CB
:1016F000797829B90028FBD1894D28460BB0F0BD77
:10170000E0684007F9D5E068000702D48448C51DA9
:10171000F3E70C210024019F38462246234600F0BF
:1017200021F80028E9D13846FFF7F0FC07213846B8
:10173000224600F0D3F8039A10684021014311605B
:1017400010684006FCD42546D7E7C0461001FFFFCD
:10175000B807002038080000FF010000FFC0FFFFAD
:1017600007120000B0B56B4C025140F620028458BD
:10177000234D254009022943C91C81508118C74ABD
:10178000147D43B1DB430D68AD070BD55B1C20D046
:10179000002CF8D104E00B689B0703D5002CFAD18C
:1017A0005F492AE0117901290BD116494158C9B284
:1017B000552906D040F6300141580F230B40012B2C
:1017C00017D1117861B100211170434A022383506F
:1017D00013E0086844F2000202430A6002210CE0B0
:1017E0003D494058400701D50020B0BD4C48801D00
:1017F000B0BD002010714A4909310846B0BDC0464D
:10180000FCC0FFFF34080000B0B585B0414C025168
:1018100040F620028458174D254009022943113112
:10182000815081189D4A127D0C68E40603D5002A78
:10183000FAD13B481CE028494158490702D43848AE
:10184000801D15E0002104E0425812BA6C46625037
:10185000091D1429F8D10020014607E06A465458B2
:1018600024025218D27912195A50091D1029F5D1A3
:1018700005B0B0BDEEC0FFFFB807002010B5254B86
:10188000C25040F620028358124C1C4009022143EA
:10189000C91D81508118814A127D0B689B0702D5B2
:1018A000002AFAD104E00B685B0703D5002AFAD1BD
:1018B0001B4810BD084A81584907194901D4881DA1
:1018C00010BD80180068000701D5002010BDC81D9C
:1018D00010BDC046F8C0FFFF2C08000018B500235B
:1018E00000930C4BC25040F6200283580A4C1C4017
:1018F00009022143491C815080186849097D084A22
:1019000001E001B900920368DB07FAD1009801B049
:1019100010BDC04624080000FEC0FFFFB80700202D
:101920001001FFFFF8B504465C4E326900230093B6
:1019300007252946FFF716FF009018B1009D28469D
:1019400001B0F0BD2046FFF7E1FBF068401E032820
:1019500000D980E0810001A251188F4600F006B83E
:1019600000F034B800F05CB800F061B840F2084014
:10197000914F2750EB4825503269372100232046EC
:10198000FFF7F0FE00900028D8D140F20040201868
:10199000016802220A43026001688907FCD43321EE
:1019A00000222046FFF76AFF00900028C6D1387851
:1019B0000F2101400F2920D1204600F0BBF80090F4
:1019C0000098D0B95A4900F06FF816E040F208408C
:1019D00079492150D34825503269372100232046C8
:1019E000FFF7C0FE00900028A8D133210022204636
:1019F000FFF744FF00900028A0D13269372100236F
:101A00002046FFF7AFFE0090002897D10621022262
:101A100000232046FFF7A6FE009000288ED113E099
:101A200040F62000215848F200029143215006213F
:101A30001B4A00232046FFF795FE0090002800D0A7
:101A40007CE72046FFF762FB40F62000215848F271
:101A500000020A432250B44D6A1C10210023204684
:101A6000FFF780FE0090002800D067E740F62000D6
:101A70002618AC4825500721002520462A46FFF7A6
:101A80002DFF306840210143316030684006FCD4AE
:101A90000448215801220A43225050E7B807002089
:101AA0000001B70328080000B0B50C46FEF7B5FBEF
:101AB000C00038D41C4D2846103800688002800FC2
:101AC000012805D0022806D0032807D117480BE0CB
:101AD000FEF738FD04E0FEF7D5FC01E0FEF7DAFC86
:101AE00040F2E831B0FBF1F011498C4200D30C46D2
:101AF000B0FBF4F14C43001B00D0491C40F2001035
:101B0000FF2902D80029084604D0FF210906000653
:101B1000401800E00020FF2109062A688A432A6055
:101B2000296801432960B0BD20020040E02E00007A
:101B300050C30000F8B504460020009040F2084071
:101B40001D4E2650774D3F27675106211B4A2046E0
:101B5000FFF794FE0090012310B1184601B0F0BDCC
:101B600040F208427078317809020818F5D0707F89
:101B7000317F09020818F0D16019A1180E600760C2
:101B800006210F4A20461D46FFF778FE2B4600909F
:101B90000028E2D140F62000215840220A4322507A
:101BA000201801684906FCD47078317809020818B9
:101BB00043424341D1E7C046500E002001FFFF00E1
:101BC00001FFFF80F0B589B0074600200890534818
:101BD00073B1154603910493514C226907210026E5
:101BE00038463346FFF7BEFD059018B105986CE006
:101BF000C01C6AE03846FFF789FA4A484A4939501A
:101C0000E1680129384602D0042900D06D0240F66F
:101C1000200143184549455040F20841039A42507B
:101C2000FF270499B1FBF7F100910691227D390459
:101C300003910121019108210291354620E0657050
:101C400019683B4D294007910799039D2943079146
:101C5000089D07991DB1029D2943196004E0354D87
:101C600029431960019908913546617811B9002A14
:101C7000FBD129E0D96889073AD40699491E069113
:101C800006990029DBD100994F430499C91B06919D
:101C90000699F9B1657006991D461B68244E3340BC
:101CA000090419430791089B07991BB1029B19432B
:101CB000296004E01F4B19432960019908912B46C4
:101CC000617821B9002AFBD1144809B0F0BDD96868
:101CD00089070DD40221D9600C2100252A4604462B
:101CE0001E462B46FFF73EFD38B10C48801DECE741
:101CF0000220D86009480830E7E72046FFF706FAD7
:101D0000072120462A46FFF7E9FD306840210143BC
:101D1000316030684006FCD42846D6E71001FFFF4A
:101D2000B807002038080000FF0100002408000068
:101D300080C000FF0B19000000207047FEB5012095
:101D400001908004FEF728FB40200290FEF780FC03
:101D5000052000263146FEF719FC0C20FEF710FB8B
:101D60008E4F3846FEF70CFB0324250638462946DD
:101D70003246FEF745FC22052049C8689043019B86
:101D80005B05C018C8601E4806691E4B1E40B61889
:101D900006610F2637064369BB435B19436133076E
:101DA00045699D432307EB184361436940F600757D
:101DB000AB4340F200355B19436143694FF20005C4
:101DC000AB4343F200055B194361330445699D430E
:101DD0002304EB18436143690A4C23409A1842617B
:101DE0000A68029B1A430A60FF21090402688A43B9
:101DF0003321490451180160FEBDC0460402004071
:101E00003C000040FFFF0FFF10B5010E044A8B5845
:101E1000FF242406A04301248440A3438B5010BD1B
:101E20000800004010B5054859211622882301609A
:101E3000026003600468002CF9D010BD000100406E
:101E40000121CA0556498B691342FCD10860C0B212
:101E50000A2804D188691042FCD10D20086070471F
:101E600010B58918491E002303E00C78C454491E9C
:101E70005B1C9342F9DB10BD10B5FEF763FB054C0C
:101E8000A060FEF78FFA04494118044AB1FBF2F151
:101E900003C410BD0000002020A1070040420F0035
:101EA000014802490160704708ED00E000000000B1
:101EB00080B50548FFF7A8FFE1204102384880BC03
:101EC00004BC964600F002B810000004F0B585B0DE
:101ED0000446314801AF6CC86CC7304E304884426C
:101EE000009129D02F4884421DD02F4884421ED013
:101EF0002E4884421DD02E4884421CD02D48844256
:101F000013D02D48844217D02C4884420DD02C4841
:101F100084420CD02B4884420BD02B4884420AD0F8
:101F20002A48844210D12E4E06E0294E04E02B4E62
:101F300002E0294E00E0274E3046FEF7C7FA07467A
:101F40003046FEF7AFFA461C002020630325E5600B
:101F5000A06824490140A160012F02D1FEF7F2FAE6
:101F60000290009BABB1B80001A90858B0FBF6F194
:101F700058080818B0FBF3F0801E020C06D0D800F9
:101F80000818B0FBF3F00009801E01E029070843A0
:101F9000606205B0F0BDC04648420000103D805769
:101FA00000000740001007400020074000300740B5
:101FB0000040074000500740000007500050075005
:101FC0000020075000300750004007500010075015
:101FD000953DEC77143DCC77933CAC77123C8C77F5
:101FE000913DA0570FFFF0FFB0B50D4C25461835B9
:101FF00004202946224600F091FA08B109A007E022
:102000000C3405202946224600F088FA28B10FA09A
:1020100001F000FE0020C043B0BD0020B0BDC046AE
:102020000C0000204661696C656420746F20616457
:102030006420535045206461746120746F2073687C
:102040006172656420617265610000004661696CBF
:10205000656420746F20616464204E535045206491
:1020600061746120746F20736861726564206172AD
:102070006561000082B001AC0020A070164820808D
:1020800016A002F04FF81B48012606601A4D28469C
:1020900040F20011FFF720FA204600F02FFD2846FD
:1020A000FFF708F80028FAD0B00414490968814203
:1020B0000CD11EA020A10022FEF780FC002808DB26
:1020C00020A023A10122FEF779FC02E00CA002F07F
:1020D00029F830BFFDE7C046303A00000A0A4D3209
:1020E000333531205344482046415446532054450B
:1020F0005354210008E100E000D0004028F00240E5
:102100004E6F6E73656375726520626F756E646184
:1021100072792073657474696E67206973206E6FBD
:1021200074206D61746368210000000074666D5F47
:10213000735F632E62696E0074666D5F735F692EF4
:1021400062696E0074666D5F6E732E62696E000068
:1021500074666D5F6E735F692E62696E00000000C9
:10216000F0B5EFB00493069207910446802167AE64
:1021700003913246FEF78CFA5FAD20220592284685
:102180003146FEF755F87C492846884740264EAA36
:1021900009927A4F30462946B8473DAA0892304600
:1021A0000799B8472CAA079230460699B8472146A6
:1021B00080312846059F3A46FEF73AF828466E4990
:1021C00088471BAA0692304629466C4B9847214601
:1021D000A03128463A46FEF72BF82846664988473C
:1021E0000AAF304629463A46644B9847032080059B
:1021F00063490A6802430A606846079901600699C4
:10220000416087605F480221099A089B00F004F949
:1022100000280BDB5CA001F085FF049951B167A891
:102220002022FEF705F82646039D4FE0764801F090
:1022300079FF97E05420205C5521615C0902081861
:102240005621615C5722A25C1202511809040B1836
:102250004C20205C4D21615C090208184E21615C14
:102260004F22A25C1202511809040D184820205C6C
:102270004921615C090208184A21615C4B22A25C79
:102280001202511809040E18DBB15220205C08908C
:1022900053210993635C5022A25C29465125655D58
:1022A00067AF6846076028020D4680181902089A31
:1022B000891809040A1830462946099BFEF73CFA9A
:1022C00004E067AA30462946FEF7E2F9204660306E
:1022D00067A92022FDF7D7FF002846D036A001F0DD
:1022E00021FF2A463D4D3E4F28463146B8475020F3
:1022F000205C5121615C090208185221615C532263
:10230000A25C12025118090409185420205C5522BD
:10231000A25C120210185622A25C5723E35C1B0237
:102320009A18120412182846B8472EA0B84700265B
:10233000304D05E067A8815D284601F06BFC761CF6
:10234000202EF7D12CA001F065FC6026294D04E079
:10235000A15D284601F05EFC761C802EF8D10A2093
:1023600001F0D8FE0020C04303E0264801F0DAFE69
:1023700000206FB0F0BDC046670300000D240000D0
:1023800000200340440000200A462F5720696E6653
:102390006F204543445341207369676E61747572C1
:1023A0006520766572696669636174696F6E205035
:1023B0004153532E000000000A0956657269667980
:1023C00020462F57206861736820696E74656772B4
:1023D000697479204641494C2E0000003B430000BF
:1023E000153C0000486173683A0A2020466C61730E
:1023F000683A2000834300000A20204649422020FA
:102400003A200000194300005443000040F2847356
:10241000C2F200031B681847F0B585B00493154657
:102420000E46074601200407FDF7F7FE204212D1B1
:102430000C980B990A9A40F28873C2F200031C6848
:102440006B461A6059609860384631462A46049BAC
:10245000A04705B0F0BD40F20000CFF2F00005B09B
:10246000F0BD0000F0B585B0019303920E4605461D
:10247000012004904407264F387840B9204640F2A6
:102480000041FDF7EEFE2348206004983870628812
:1024900002922243231D20490EE018785F783F0204
:1024A0003818070BBD4202D10840B04210D09878CE
:1024B000DF783F0238181B189342EED30420C04344
:1024C000039A801A80B2029FB84203D203201DE013
:1024D00002201BE0101D009080B2381840F200432B
:1024E0009842049812D80E4028038019E055E1194B
:1024F000009D2B0ACB708D70000A4870081D019951
:10250000FDF796FE608840196080002005B0F0BDA0
:10251000AC30002016200400FF0F000070B58CB016
:102520000546001FC1B202290ED840B280002CA17E
:102530000E583046FDF7A0FE0246AC01E11C01201A
:102540003346FFF78FFF10B101200CB070BD274854
:10255000042D07D0052DF7D10146C2310246C13204
:10256000C03001E0811C421C0378107809886A465B
:1025700003C204A80E211EA201F05CFB0E28E3D2C8
:102580000246012604AB30462146FFF76BFF0028C8
:10259000DAD102A819A10722FDF74AFE052D04D0C1
:1025A000042D07D104A8184901E004A815492022E8
:1025B000FDF73EFE08212143102204AB3046FFF711
:1025C00051FF50B9092004430126062202AB3046D0
:1025D0002146FFF747FF00B9064630460CB070BDF4
:1025E00023420000154200001A4200005C780000FF
:1025F00025752E25752E25750000000053484132A3
:10260000353600002079000060780000F8B50546F6
:102610000024C470E0432863284601F056F908B14D
:1026200004241DE01048285C1049695C0902081860
:102630000F49884213D128466A3001F03EF80D4E0A
:1026400030400D4FB8420BD08635284601F035F8A2
:102650003040C01B411E8841400001B0F0BD032442
:10266000204601B0F0BDC046320200003302000037
:1026700055AA0000FFFFFF0046415400891E8269F1
:10268000921E914204D242894A43C06A1018704790
:1026900000207047F0B585B00C4605460168002C57
:1026A000049107D02846214600F06CFF022809D289
:1026B00001272FE00194CC6814B18869844209D3C2
:1026C000012407E00746401C22D00499886987420C
:1026D00001941FD3022003900020029026468869AF
:1026E000711C81420E4600D3039E814201D3022C0D
:1026F0000CD32846314600F045FF0746401C09D060
:102700005FB1012F049905D0A642E8D1029F01E0F4
:102710000020C743384605B0F0BD0020C7430498E9
:1027200031463A4601F0EEF8019931B10028049A99
:1027300004D11046324601F0E5F8049A10B10128A0
:10274000B6D1E7E7D66010699169891E884201D247
:10275000401E106110790121014311713746D9E7FC
:10276000F0B585B004468069042730B30A46256970
:102770002035690D21D12368364E2E402EB12561BA
:1027800098193430E061002618E0401CA0616169AE
:1027900069B1680A04925A89521E0242EFD103932A
:1027A000204600F0EFFE02280BD2022606E0680960
:1027B00019898142E3D80020A0613E46304605B029
:1027C000F0BD014602960126401CF7D0039A90699D
:1027D000814207D261611046FFF750FF039BA06161
:1027E000029ECCE704980028E5D061692046FFF7F7
:1027F00051FF411C032904D2880017A1085805B0D5
:10280000F0BD0190039F384601F0BEF90028D5D1F4
:102810003846343040F20021FDF723FD3846019957
:10282000FFF72CFF002301260BE00493D67010461F
:10283000174601F0A9F90028C0D1049B5B1C386B36
:10284000401C3A46386379898B42EED3C01A106334
:102850000199BFE7FF010000010000000700000030
:102860000200000070B50546046800F02DF848B17C
:10287000042800D1072020B9A969204601F025F8D5
:10288000A0B170BD0126A969204601F01EF80028FC
:10289000EED1E86900780028EED0E528ECD0284693
:1028A0003146FFF75DFF0028EDD0E1E7E869202120
:1028B000FDF7D7FCE869296A0B2200F0FDFF012033
:1028C000E070002070BD0000FEB5044600270761DF
:1028D00086680068002E029018D041894D020121BF
:1028E00000910221019104E0029881698E420BD28D
:1028F0007F1BAF4216D32046314600F043FE06460A
:10290000401C22D0022EEFD201981FE0017803294B
:1029100002D3866A002EE0D10189A1B1806A002726
:102920003E4602E03146FFF7A9FE6661A06150B164
:10293000790A401806493940029A51183431A06189
:10294000E161002002E0022000E0009803B0F0BD49
:10295000FF01000010B50446FDF75FFC012C06D016
:1029600014B96448006908B1002400E0012420463D
:1029700010BDC046002061B1022905D0012907D150
:102980005C49C968116070475A49496911807047AC
:1029900004207047FEB51F4602920C460546FDF71F
:1029A0003CFCC0005148064600D5514E15B10420EC
:1029B00003B0F0BD2246A1070FD0012F17D14E4D15
:1029C0000123304629461446029AFEF705FE0646C4
:1029D000484842692046294629E01146029A3B466A
:1029E00003B0049CA646F0BC01B0FEF7F5BD111D76
:1029F0000320814301917F1E3046029C15462246EA
:102A00003B46FEF7E9FD3B4842697A432846019977
:102A1000FDF70EFC3A19384C012330462146FEF7EB
:102A2000DBFD0646334842695743E8192146FDF766
:102A3000FFFB304603B0F0BD10B50446FDF7EDFBDB
:102A4000012C06D014B92B48006908B1002400E01D
:102A50000124204610BDC046FEB51F4601920E4619
:102A60000446FDF7DAFBC00001D5214D00E01F4D03
:102A70000CB1042038E0B0070DD0012F10D11D4853
:102A800042691D4C20463146FDF7D2FB0123284602
:102A90002146019A26E028463146019A3B4621E02C
:102AA0007F1E144842693C46544331191248FDF7D1
:102AB000BFFB0294311D0320814306E00298401EB3
:102AC000325C42540298401E029002980028F5D1D0
:102AD0002846019C22463B46FFF774F83A190649FE
:102AE00001232846FFF76EF803B0F0BD00D0004088
:102AF00000D00050C4070020E0070020E0B501909E
:102B000001A800F0ABFD002803DB0349087000209A
:102B100000E00B2002B080BDDC0700201CB504469D
:102B200000F038FA30B901A9204601F059F808B987
:102B30000020206002B010BDFEB50D46044602A97B
:102B400001F04EF80746002800D09FE0677C002F78
:102B500000D09BE0E168A94209D2207C800707D51C
:102B60006069002161612146143101910AE0294622
:102B7000606900276761002900D187E0224614328E
:102B800001920D46029F79894E0238B1401EB0FB7A
:102B9000F6F16A1EB2FBF6F28A4203D2A168C9B30B
:102BA000A16104E07142084060612D1AA169F9B188
:102BB0000020009019E0207C800704D4204600F01B
:102BC000E1FC014605E02046FFF764FD01460028D0
:102BD0004BD0481C29D0022956D3B869814253D220
:102BE000A161606980196061AD1BB542E3D83EE028
:102BF000019806680021F00502D0E269914216D1E1
:102C0000E0680027864241D9E660207C202101430C
:102C100021743BE000212046FFF73CFD0146401CAB
:102C200003D0012930D0A160BAE701272DE00E467C
:102C3000207C4006029D0BD568782146283101276B
:102C40003B46FFF709FF00BB207CBF2101402174F8
:102C50006878214628310127354632463B46FFF742
:102C600099FE90B9E5616669CAE700993546019A0F
:102C7000106846191660E8050BD03846FFF7FEFCD1
:102C800010B1690A4118B6E702276774384603B0E5
:102C9000F0BD0099AFE70000BFB5144605460291AC
:102CA0000390019101A800F0D9FC002813DB8000FB
:102CB0000C490818416809B100220A70011D65B16C
:102CC000002028700D60012C09D102A803A9002260
:102CD00000F0AAF903E00B2001E00D60002004B031
:102CE000B0BDC04690070020F0B591B0109138B348
:102CF00015460446002606601F20054010A806A9B8
:102D00002A4600F091F9E0B903A80F90069F0797B3
:102D1000109907A800F0F8FA28B90B200F99085667
:102D2000C11706200840E906490F0CD0C0B104289D
:102D300007D107A8FFF796FD18B90820054318E04A
:102D4000092011B0F0BD02970028FAD107A88079B8
:102D5000C10665D4A90747D50121084028B943E039
:102D600007A880791121084201D00720E9E7680708
:102D700058D40297280737D500F06EFC0146019021
:102D80000E9F38460E3000F0A1FE384616300199ED
:102D900000F09CFE2020F8720298394600F07EFC7C
:102DA0000346FE76BE7602980078032801D17E7530
:102DB0003E75FE77BE777E773E7701200299C87018
:102DC00093B10F6B07A800221946019300F036FE5D
:102DD0000028B6D13946029F384600F076FD0199A9
:102DE000491EF9600028ACD10298016B0E9F216248
:102DF0006762394600F052FCA0601C37384600F08C
:102E00005CFCE66166616674E060A8002021014018
:102E10004819207402982060C088A080304690E74E
:102E200004208EE708208CE7F0B587B015460591A1
:102E30000446002603931E6006A900F0D1FE074653
:102E4000002800D0A0E0677C002F00D09CE0207C10
:102E5000C00701D1072797E001966369E168CE1AA0
:102E6000AE4200D32E4620462830029006980490A9
:102E7000474A039F0598002E00D17FE01946114074
:102E8000002905900BD0521C521AB242354600D888
:102E90001546611828312A4600F00EFD3DE0590A1A
:102EA00004984289551E0D400DB1A1690CE02BB16B
:102EB000A169204600F066FB014600E0A1680129F7
:102EC0005ED9481C5ED0A1610498FFF7D7FB0028AB
:102ED00056D04319770A2BD0E919049840898142CA
:102EE00000D9471B0599049840781D461A463B4671
:102EF000FFF750FD002845D1207C40060BD5E06946
:102F0000401BB84207D2400205990818F8494A1CEC
:102F1000029900F0D1FC7D02039F0598F44A616993
:102F20004B196361396849193960761B4019A2E76A
:102F3000E2699A421BD0207C40060DD51D460498BC
:102F40004078012702993B46FFF786FDD8B9207CDF
:102F5000BF21014021742B46049840780127029933
:102F60001A461D463B46FFF715FD2B4658B9E3614F
:102F70006169DF4A1140039F059884E7019F03E0E0
:102F8000022700E001276774384607B0F0BDC0464D
:102F9000FF010000F8B50446694600F021FE07462F
:102FA000F0BB207C810601D4002739E04006009D5B
:102FB0000CD5E26968782146283101273B46FFF7A6
:102FC0004BFD68BB207CBF210140217400F044FB15
:102FD0000646216A284600F078FC074600BB676A6F
:102FE000F87A20210143F972A2682068394600F07E
:102FF00062FDE16838461C3000F068FD3846163046
:10300000314600F063FD0020F874B8740120E870C8
:10301000284600F063FD0746207CDF210140217433
:10302000384601B0F0BD0000F0B589B015460C4639
:1030300000260E6000F012FB002817DB0746800018
:10304000A7490818416801B32160FE2005400878AF
:1030500000280C460CD06078FFF7EEFCC10707D1C2
:10306000B5B14007C0170A25054011E00B250FE058
:1030700067702670F8B2FFF76DFCC10707D155B134
:103080000421084038B10A2502E00C2500E00325A0
:10309000284609B0F0BD049420463146FFF7B6FA41
:1030A000022824D140F2F61004990C1800252E466F
:1030B0000AE020780028284602D0201D00F0FDFA02
:1030C00005A988511034361D102EF2D1002405AD0B
:1030D00003272E68002E384605D004983146FFF7A6
:1030E00095FA02280BD32D1D641C042CF1D304285F
:1030F00001D10125CCE7012801D90D25C8E73F20E2
:10310000049C205C4021615C090208180D2540F2F6
:1031100000218842BCD14A20205C4B21615C09021D
:103120000B1804D12046583000F0C7FA0346E3617B
:1031300044202146245C8C70601E0128A8D84120C0
:103140000F5C4F81002FA3D0781E3842A0D14520BC
:10315000049A105C4621515C09020918118100078C
:1031600096D103914720105C4821515C0902081850
:1031700006D110465430029300F09FFA049A029B45
:1031800002904221515C10464322825C1202511887
:1031900000D17DE75C43039A1209A21852180298E5
:1031A000904200D274E7801AB84200D270E70293CE
:1031B000B0FBF7F39019049AD0627018166250624F
:1031C000991C0091916147491F468B4201D801210A
:1031D00000E00221019144498F4201D9032101916C
:1031E00042498F4214D35E200499085C039A02433B
:1031F0005F20085C00021043002800D048E7049CD0
:103200002046603000F059FAA0620098800013E078
:103210000399002900D13BE70019049988620198BD
:10322000022802D10098400006E00120009A1040D8
:103230000321514349080818CE494018400A029911
:10324000814200D224E78020049908710025E843D8
:10325000C86008612548874236D36420049A105C10
:103260006521515C0902081801282DD1711C0498B0
:1032700000F02BFB40BB0020049A10711D48105C2D
:103280001D49515C090208181C4988421CD1049848
:10329000343000F012FA1A49884215D140F2182051
:1032A0000499081800F009FA164988420CD140F236
:1032B0001C20049C201800F000FA206140F220201D
:1032C000201800F0FAF9E0600499019808700448A9
:1032D00002460088401C10804D61C880D8E6C04678
:1032E00090070020F50F0000F5FF0000F6FF00003A
:1032F000FF010000320200003302000055AA000066
:103300005252614172724161F0B589B00D46044676
:10331000087821685C2805D02F2803D0486907E089
:1033200068786D1CC0B25C28FAD02F28F8D0002035
:10333000A0602878202809D2206A8021C172204606
:1033400009B0F0BC02BC8E46FFF7BEBA0091276AF6
:103350000B20059020200690002002902E20019046
:10336000039438460599069AFCF774FF28782E28AE
:1033700017D16A1C0198029904E04B1C2E20785446
:10338000505C19462E2801D10129F6D92F2804D0E6
:103390005C2802D0202800D9E2E021286ED30698CC
:1033A0006DE0002608200790334608960798401ED7
:1033B00004901C462A5D631C212A62D300205C2AEB
:1033C00060D02F2A5ED0079886424AD22E2A48D053
:1033D00050B200280DDA0320089901430891802A91
:1033E00007D05009052825D310462030C0B21C282C
:1033F00020D95F48017811B1401C9142FAD10029CF
:1034000000D0ADE0412A10D35A2A04D802200899EE
:103410000143089109E010466138C0B2192804D868
:103420000120089901430891203A11461C46B955DC
:10343000761CBFE7E95C0620402900D291E07F2995
:1034400007D30B46FD3B032B00D28AE07F2900D136
:1034500087E0049B9E4200D383E0A41CBA55761CEF
:10346000E5E70620079908297BD10899890008918A
:1034700008262E2A0599079198D072E024204B1C2B
:103480001EE00420039C00E05B1CE95C5C29FBD08F
:103490002F29F9D0002E63D03978E52901D10521F3
:1034A000397007990829089E00D1B6000C213140D7
:1034B00003223240012A00D11030042900D1083003
:1034C000F872ED1826682046FFF7FEF903E00021A8
:1034D0002046FFF745F9D8B9A169304600F0F5F963
:1034E000B0B9E069017859B3C17A3F220A40A271AC
:1034F000C17A0907EBD4276A00217A5C435C0A2968
:1035000002D0491C9342F8D09342E0D1F97A08E006
:10351000276AF97A28B1042823D13A460B32039C52
:1035200012E048071AD4A079C0061ED521691148B7
:10353000014000984118343100F0B0F8A06010E765
:10354000276AF97A3A460B3204200B460340890673
:1035500009D5002B00D104E780201070002000E086
:10356000062009B0F0BD002BFBD10520F9E7C046CD
:1035700008470000FF01000010B50446FEF760FC9C
:10358000204610BDFEB5012602295DD30C46056814
:10359000A869884258D9287803282DD002283DD020
:1035A000012851D160080719780A696A0918284664
:1035B00000F08BF90021CE43002845D140F2FC10E9
:1035C000C01C791C02900740E8193427C05D0090A8
:1035D000686A0191490A4118284600F076F998BBBB
:1035E0000298019901406818C05D000200994618D0
:1035F000E0072CD0360927E0E009696A0918284657
:1036000000F063F988B96006C00D2818343000F066
:1036100054F806460F200007864315E0200A696A21
:103620000918284600F051F910B10020C6430BE0FC
:1036300040F2FC10801C6100014068183421415C9C
:103640003522805C00024618304603B0F0BD0148C8
:103650000640F9E7FF0F00000020704710B5014653
:1036600002680023D8431AB915E03A2C06D05B1C37
:10367000D45C212CF9D2084800780CE01478303C56
:10368000092C08D8012B06D1092C04D0D018401CD5
:103690000860204610BD10BDDC0700200246887E71
:1036A000CB7E1B0218181278032A05D10A7D497DAA
:1036B000090289180904081870478178C278120233
:1036C00051180902427889180902007808187047D1
:1036D000CAB0FEF7A7FBFEF731FBFEF7E9FB46A0F9
:1036E00000F020FD4D4801680124214301600320C2
:1036F00000900005FDF722F9019032AF3A1D002538
:10370000474E28463946B047394608313A460C32CA
:103710002046B047394610313A4614320220B047AD
:10372000394618311C3700983A46B047E84303E061
:1037300032A9495908402D1D202DF9D1401C3BA02C
:1037400001D1014600E037A1019A920600D5014659
:1037500039A000F05FFA4248006820B941A000F0AB
:10376000E1FCFEF787FC42AC494E2027204631465B
:103770003A46FEF775FB20363AAD284631463A46C2
:10378000FEF76EFB02AE4349C0223046FCF750FD07
:103790000023304621462A46FEF7E2FC002821DBC2
:1037A0003D4800F0BFFC149D02AC3C49C0222046BD
:1037B000FCF73EFD42A93AAA00232046FEF7D0FCC2
:1037C000002811DB364800F0ADFCFEF70DFC354853
:1037D0000560686834490860286880F308880868CC
:1037E000804704E0324800E0304800F09BFC31485C
:1037F00000F098FC30BFFDE73D3D3D204E75766FF3
:10380000746F6E2050534120426F6F746C6F61640F
:1038100065722076312E30203D3D3D0000C00040D5
:1038200055090000456E61626C656400446973610E
:10383000626C656400000000526F6F74206F662038
:10384000547275737465642046756E6374696F6E27
:10385000202E2E2E2E2E2E2E2E202573210A0000F5
:103860004048004021212120537461727420466930
:10387000726D776172652055706772616465205062
:10388000726F63656475726520212121000000005C
:103890000070000000780000DA420000C0780000EC
:1038A000B042000008ED00E0A41000205C420000DF
:1038B000864200000443000004E00B780370521EAF
:1038C000401C491C002AF8D1704770B50446006BB3
:1038D000884201D1002613E00D46204600F054F93D
:1038E000064668B960782146343101262A463346B7
:1038F000FFF750F808B10021CD43256300B9064613
:10390000304670BDFEB504460220022962D30E4641
:10391000A169B1425ED915462178032921D0022937
:1039200036D0012956D170088719780A616A0918BA
:103930002046FFF7CAFF00284CD101231E4040F269
:10394000FC10C01C7A1C02900740E0193430AEB362
:10395000017817460F220A402906090D89183A46B0
:103960002DE0F009616A09182046FFF7AEFF88BB19
:103970000F200707BD437006C00D261834363046A9
:10398000FFF79BFE38404119304600F09FF811E0E8
:10399000300A616A09182046FFF797FFD0B940F254
:1039A000FC10801C710001406018290A35228154E6
:1039B000342145540120E07000200BE0E9B2017091
:1039C000E370500A616A0918204601931746FFF711
:1039D0007CFF08B103B0F0BD02980740E019343015
:1039E000002E019B02D02909C9B205E00178F0221E
:1039F0000A402905090F89180170E370DCE700000F
:103A000090B40022084909E00B784BB1491C02E050
:103A10004C1C0B782146002BFAD1521C8242F3D168
:103A200002A090BC00F0F6B84441000046494C4565
:103A3000204552523A2025730A000000FEB50226A6
:103A4000022931D30F4604460568A86988422BD95C
:103A50003AB10020C343284611461A46FFF752FFE9
:103A600018BB0096002002900120019020463946A4
:103A7000FFF788FD0646401C19D0AEB1012E18D0C4
:103A800028463946029AFFF73DFF70B92869401C65
:103A900004D028612879019908432871A8698642D1
:103AA0003746E3D3029800E0304603B0F0BD0198FA
:103AB000FBE70098F9E78A76130ACB7600780328AB
:103AC00003D1100E4875100C0875704701700A0E6E
:103AD000C2700A0C8270090A4170704710B5044622
:103AE00000F052F8002844D1207803283AD12079F8
:103AF000012837D12046383040F2FA11FCF7B1FBEB
:103B00001C48AA2121541C48552121541B486121DD
:103B100021541B48412222541A487223235440F254
:103B20001820235437202254362021543520522186
:103B300021543420215440F21C2020182169FFF721
:103B4000C5FF40F220202018E168FFF7BFFF206A80
:103B5000421C22636078214634310123FEF77CFF4A
:103B600000202071607800210A46FEF703FF00B1B3
:103B7000012010BD33020000320200001B020000D1
:103B80001A02000019020000FEB50446C07818B3FE
:103B90006078266B274634370125394632462B4656
:103BA000FEF75AFFC8B90025E570606A301AE1696E
:103BB000884212D20195A5780120029008E0E069C0
:103BC0008619607839463246029BFEF745FF6D1E26
:103BD000022DF4D2019D00E00025284603B0F0BD7F
:103BE000F8B50C460925002778B10646006860B193
:103BF000017851B1B188C2888A4206D14078FEF777
:103C00001BFFC00701D1376800252760284601B097
:103C1000F0BD00000FB410B503A9044B044A02988C
:103C200000F032F810BC08BC04B018477935000029
:103C3000501000200FB41CB50246002007AC00292C
:103C40000BD0491E01910092064B6A462146069808
:103C500000F01AF8009A002111701CBC08BC04B0D6
:103C600018470000FD40000002E008C8121F08C10C
:103C7000002AFAD170477047002001E001C1121FED
:103C8000002AFBD170470000FFB591B00F460546F2
:103C9000002606E025280AD0149A139990476D1C37
:103CA000761C28780028F5D1304615B0F0BD0024E8
:103CB00000940121F34A029400E004436D1C2B7828
:103CC0000846203B98401042F7D128782A280ED089
:103CD000022128780246303A092A15D8009A0A2388
:103CE0005A43303A80180C436D1C0090F1E701CF25
:103CF0000090002805DA0120400304430098404268
:103D00000090022004436D1C28782E2815D1042031
:103D1000044368786D1C2A280AD101CF6D1C0290DB
:103D20000BE002990A225143303940186D1C029071
:103D30002878014630390929F3D928786C2810D021
:103D400006DC4C281AD068280ED06A2817D104E067
:103D5000742813D07A2812D110E0012040050443C2
:103D60000CE00121090501E0032109050C436978F4
:103D7000814203D10120000524186D1C6D1C287898
:103D800003906E281ED00CDC632831D004DC0028A0
:103D90008AD0582811D1B2E064287BD069280CD190
:103DA00078E073282DD004DC6F2870D0702804D1FF
:103DB000A7E075286CD078286BD0149A1399904797
:103DC000761C62E06002400F022807D003280AD068
:103DD000042838680AD006603F1D56E03868F1179D
:103DE00006604160F8E738680680F5E70670F3E79B
:103DF0003878694608740020487404A803900120AC
:103E000003E0386803900020C0433F1D61070FD5D1
:103E1000002101E00199491C029A0191914213DAB3
:103E20008142F7DB019A0399895C0029F2D10BE00A
:103E3000002101E00199491C01918142FADB019ABC
:103E40000399895C0029F5D101990098139A401AC9
:103E500000902146149B00F03BF901998019461807
:103E600007E0039803990078491C0391149A139969
:103E700090470198401E0190401CF2D12146149BAE
:103E8000139A009800F014F986196D1C09E741E0B7
:103E900033E034E00A200021049005916002410FD4
:103EA000022905D001CFC2179446032905D007E0A7
:103EB000FF1DFF08FF0003CF06E000B2C2179446C3
:103EC000042902D140B2C1178C46002261469445B4
:103ED00006DA0A460021404291418C462D2102E03B
:103EE000210504D52B216A461176012103E0E10763
:103EF00001D02021F7E7019154E00A200BE01020C7
:103F000009E01020049000210420044308200591BA
:103F1000029003E008200021059104906002410F07
:103F2000022905D001CF00229446032906D006E0DD
:103F3000FF1DFF08FF0003CF8C4603E080B2042979
:103F400000D1C0B20021019121072BD5039970291E
:103F500006D0049A1021059B4A401A4305D00EE072
:103F600040216A461176012108E06146014306D0EE
:103F700030216A4611760399517602210191049A03
:103F80000821059B4A401A430CD16146014301D1E7
:103F9000610707D530216A46117601210191029906
:103FA000491E02910399582904D037A103910FA902
:103FB0000F910DE039A1F9E76146059B049AFCF7E2
:103FC0006FF9039B8C469B5C0F9A521E0F921370E5
:103FD00061460143F0D10F9807A9081A20300390D9
:103FE000600704D5012000048443029801E0012009
:103FF00002900399884201DD401A00E00020411838
:104000000290019809180098401A0090E00306D425
:104010002146149B139A009800F05AF88619002044
:10402000049008E006A9085C149A13999047049834
:10403000401C761C049001998842F3DBE0030CD508
:104040002146149B139A009800F042F8861904E068
:10405000149A302013999047761C0299481E0290BA
:104060000029F5DC08E00F980F990078491C0F91A2
:10407000149A13999047761C0399481E03900029BF
:10408000F1DCFBE6092801003031323334353637B4
:104090003839616263646566000000003031323394
:1040A0003435363738394142434445460000000034
:1040B000F8B5044600251E461746880404D405E0DA
:1040C00039462020B0476D1C641EF9D52846F8BD3E
:1040D000FFB50446002581B01E46C80301D5302730
:1040E00000E02027880404D505E038460399B0474E
:1040F0006D1C641EF9D5284605B0F0BD4A68002A3B
:1041000006D00A68531C0B6010704868401E486057
:104110007047000010B50249FFF72EFA10BD0000ED
:104120005010002010B5044601E0FFF725FA207872
:10413000641C03490028F8D10A20FFF71DFA10BDBE
:10414000501000204F4B004449534B5F45525200E2
:10415000494E545F455252004E4F545F52454144C0
:1041600059004E4F5F46494C45004E4F5F504154F9
:104170004800494E56414C49445F4E414D4500442C
:10418000454E49454400455849535400494E56410F
:104190004C49445F4F424A454354005752495445A5
:1041A0005F50524F54454354454400494E56414C8C
:1041B00049445F4452495645004E4F545F454E4175
:1041C000424C4544004E4F5F46494C455F5359535E
:1041D00054454D004D4B46535F41424F5254454468
:1041E0000054494D454F5554004C4F434B454400F6
:1041F0004E4F545F454E4F5547485F434F52450021
:10420000544F4F5F4D414E595F4F50454E5F4649A9
:104210004C455300004E535045004E5350455F539C
:10422000504500535045000000000000040000000D
:10423000080000000C000000000000000400000066
:104240000800000010000000001BB7000000000084
:1042500000800000001BB700010202044E6F6E2DAB
:10426000736563757265206170706C6963617469F0
:104270006F6E20766572696679202E2E2E2046415B
:10428000494C4544210054462D4D2076657269669F
:1042900079202E2E2E2E2E2E2E2E2E2E2E2E2E2E01
:1042A0002E2E2E2E2E2E2E204641494C45442100E6
:1042B0004E6F6E2D736563757265206170706C69E9
:1042C000636174696F6E20766572696679202E2E3F
:1042D0002E20504153534544210054462D4D207605
:1042E0006572696679202E2E2E2E2E2E2E2E2E2EC3
:1042F0002E2E2E2E2E2E2E2E2E2E2E20504153536D
:10430000454421005472757374656420426F6F7464
:10431000204661696C656421000A56657269667998
:1043200020462F57206861736820696E7465677234
:1043300069747920504153532E0A0053746172748A
:104340003A307825303878202073697A653A3078A9
:1043500025780A000A09462F5720696E666F2045A6
:1043600043445341207369676E61747572652076AA
:104370006572696669636174696F6E204641494C74
:104380002121002530327800257320766572696618
:1043900079202E2E2E2E2E2E2E2E2E2E2E2E2E2E00
:1043A0002E2E2E2E2E2E2E204641494C4544210ADB
:1043B000004F70656E2066696C652025732C207334
:1043C000697A65203D2025640A005365637572652E
:1043D00020636F756E7420636865636B202E2E2ECC
:1043E0002E2E2E2E2E2E2E2E2E204641494C45446A
:1043F000210020446F6E65002020496C6C65676168
:104400006C2061636365737320746F2025732025AE
:104410007320696E204E6F6E7365637572652063DD
:104420006F64652E0A4974206D617920626520737E
:10443000657420617320736563757265204950202F
:10444000686572652E0A0020205B30782530387848
:104450005D20307825303478202573205225642063
:104460005B307825785D0A0020205B307825303875
:10447000785D2030782530347820257320307825F9
:1044800078205B307825785D0A002020496C6C65C7
:1044900067616C20746F20757365204E6F6E736555
:1044A00063757265206164647265737320746F2034
:1044B00061636365737320257320257320696E2003
:1044C00053656375726520636F64650A0020204E32
:1044D0006F6E2D736563757265204350552074723D
:1044E0007920746F206665746368207365637572E4
:1044F0006520636F646520696E20307825780A0036
:1045000021212D2D2D2D2D2D2D2D2D2D2D2D2D2DF3
:104510002D2D2D2D2D2D2D2D2D2D2D2D2D2D2D2DCB
:104520002D2D2D2D2D2D2D2D2D2D2D2D2D2D2D2DBB
:104530002D2D2D2D2D2D2D2D2D2D2D2D2D2D2D2DAB
:104540002D212100202054727920746F206368652A
:10455000636B204E534320726567696F6E206F72E4
:10456000205341552073657474696E67732E005033
:10457000444D413000493243300044414330005300
:1045800043300053444830005553434930005145AF
:104590004930005153504930004250574D3000458A
:1045A00050574D300043414E30004543415030009C
:1045B000493253300055415254300041434D503040
:1045C0003100544D5230310050444D413100493298
:1045D0004331004441433100534331005553434973
:1045E0003100514549310053504931004250574D37
:1045F00031004550574D3100454341503100554140
:10460000525431004932433200534332005350492F
:104610003200554152543200544D523233005350FF
:1046200049330055415254330055415254340055DA
:1046300041525435004750494F41005041004750C6
:10464000494F42005042004541444300464D43001B
:104650004750494F43005043004352430052544394
:104660000055534244004750494F440050440047CE
:1046700050494F45005045004750494F460050466D
:104680000054524E47004750494F47005047004F93
:1046900054470055534248004750494F480050483E
:1046A0000045424900434C4B004750494F5F44424C
:1046B00043544C004C44520053545200535953003D
:1046C0005757445400494E540043525054005343EA
:1046D000550020204578656375746520424B505421
:1046E00020776974686F75742049434520636F6E45
:1046F0006E656374656400536563757265004E6F23
:104700006E73656375726500222A2B2C3A3B3C3D23
:104710003E3F5B5D7C7F00004047000000000020C2
:1047200090070000683C0000D04E00009007002079
:1047300020490000783C00002EBCFF7F01000000F3
:10474000006CDC0230000000006CDC0200000000A5
:104750000080000000800300000000000000041042
:104760000000040007690000008000002000000035
:1047700000C802002000000000000000000000004F
:1047800000000000002003400000000000000000C6
:104790000000000000000000000000000000000019
:1047A0000000000000000000000000000000000009
:1047B00000000000000000000000000000000000F9
:1047C00000000000000000000000000000000000E9
:104B7000BC4600000000004000000000A546000008
:104B80000002004000000000C54600000003004095
:104B9000000000003546000000400040E00000003A
:104BA0003E46000040400040E1000000504600004A
:104BB00080400040E200000066460000C040004027
:104BC000E30000006F46000000410040E4000000E8
:104BD0007846000040410040E500000086460000A5
:104BE00080410040E600000098460000C0410040BF
:104BF000E7000000A946000040440040000000001B
:104C00003B46000000480040E00000004446000031
:104C100040480040E0000000564600008048004048
:104C2000E00000006C460000C0480040E0000000CA
:104C30007546000000490040E00000007E4600008C
:104C400040490040E00000008C46000080490040E0
:104C5000E00000009E460000C0490040E000000067
:104C60006F4500000080004000000000C8450000C3
:104C700000800140180000009346000000900040B2
:104C8000090000004C46000000C000400000000089
:104C90008345000000D000400D000000A146000048
:104CA0000000014010000000CE46000000F002406D
:104CB00000000000594600000010034031000000D1
:104CC000C94600000020034032000000C146000039
:104CD0000000044000000000C04600000001044045
:104CE000000000005D46000000100440410000008C
:104CF000474600000030044043000000BB45000070
:104D000000500440450000007A4500000070044057
:104D100047000000D34500004070044047000000F9
:104D2000B045000000800440480000008F460000AD
:104D300000D004404D000000C245000000000540C6
:104D4000000000001846000000100540510000005F
:104D50009F4500000080054058000000F24500001B
:104D600000900540590000009945000000A0054052
:104D70005A000000EC45000000B005405B00000058
:104D800093450000000006406000000094450000CC
:104D90000010064061000000E745000000200640CA
:104DA000620000000D460000003006406300000075
:104DB0001E4600000040064064000000B5450000AB
:104DC0000000074070000000FE4500000010074092
:104DD0007100000012460000002007407200000031
:104DE0002346000000300740730000002946000001
:104DF00000400740740000002F46000000500740AC
:104E000075000000754500000000084080000000AB
:104E1000CE4500000010084081000000044600005C
:104E200000200840820000007F450000000009408B
:104E300090000000D84500000010094091000000DB
:104E4000094600000020094092000000A54500002E
:104E500000000A40A00000008E45000000000B404A
:104E6000B0000000E245000000100B40B10000005F
:104E7000AA45000000400B40B4000000F8450000C7
:104E800000500B40B50000008146000000900B4030
:104E9000B90000006146000000000C40C0000000A6
:104EA0008845000000000D40D0000000DC450000F7
:104EB00000100D40D10000000000000000200D4057
:104EC0000000000043648000A16480000000000036
:020000040000FA
:10700000FFFFFFFFFFFFFFFFFFFFFFFFFFFFFFFF90
:10701000FFFFFFFFFFFFFFFFFFFFFFFFFFFFFFFF80
:10702000FFFFFFFFFFFFFFFFFFFFFFFFFFFFFFFF70
:10703000FFFFFFFFFFFFFFFFFFFFFFFFFFFFFFFF60
:107040000100000008000000000000000000000037
:107050000C00000000000000000000000000000024
:10706000FFFFFFFFFFFFFFFFFFFFFFFFFFFFFFFF30
:10707000FFFFFFFFFFFFFFFFFFFFFFFFFFFFFFFF20
:10708000FFFFFFFFFFFFFFFFFFFFFFFFFFFFFFFF10
:10709000FFFFFFFFFFFFFFFFFFFFFFFFFFFFFFFF00
:1070A000FFFFFFFFFFFFFFFFFFFFFFFFFFFFFFFFF0
:1070B000FFFFFFFFFFFFFFFFFFFFFFFFFFFFFFFFE0
:020000040000FA
:10780000755B3819F05A3E9F32D4D599062834AAB0
:10781000C5220F75955378414A8F63716A152CE222
:1078200091C413F1915ED7B47473FD797647BA3D74
:1078300083E8224377909AF5B30C530EAAD79FD7CB
:10784000010000001000000000800000000A02009B
:1078500000F80300600000000400000000000000C9
:10786000A6AF4B96951D7B732860D07BD62653C957
:107870000421AB8E0AF6F82BAD0750E7D3CA8CA1D2
:10788000B99D54B277C7374FC4FFB5E0C0694841CE
:10789000D31493E049AB102F68E4EA8E271271F8F5
:1078A00070C9986A815B6379A7C990B94735F4902C
:1078B00055193D2F11358EDB31323C3E822B36C8B7
:1078C000755B3819F05A3E9F32D4D599062834AAF0
:1078D000C5220F75955378414A8F63716A152CE262
:1078E00091C413F1915ED7B47473FD797647BA3DB4
:1078F00083E8224377909AF5B30C530EAAD79FD70B
:107900000100000010000000000004108878000052
:107910000000000000000000040000000000000063
:107920009C98D3DF68258BED3BE7FE263DFBDE7D93
:107930005BA800EC753682EE9D8BEE57283E156BEA
:1079400073A640EB9E234DC35E029E94F11D1AB6B2
:1079500039FAB5146F61E2C2BC51091EDEF8CFA13D
:10796000C9A5DC2482D44ACBDD4A28866C4986CD61
:10797000E63B5D0C95C3886567693956ECBDEDB78C
:04000005000001ED09
:00000001FF
