:020000041004E6
:10000000E82D0130ED010410F5010410F701041092
:1000100000000000000000000000000000000000E0
:1000200000000000000000000000000007020410B3
:10003000000000000000000009020410CD110410AF
:100040000D0204100D0204100D0204100D02041024
:100050000D0204100D0204100D0204100D02041014
:100060000D0204100D0204100D0204100D02041004
:100070000D0204100D0204100D0204100D020410F4
:100080000D0204100D0204100D0204100D020410E4
:100090000D0204100D0204100D0204100D020410D4
:1000A0000D0204100D0204100D0204100D020410C4
:1000B0000D0204100D0204100D0204100D020410B4
:1000C0000D0204100D0204100D0204100D020410A4
:1000D0000D0204100D0204100D0204100D02041094
:1000E0000D0204100D0204100D0204100D02041084
:1000F0000D0204100D0204100D0204100D02041074
:100100000D0204100D0204100D0204100D02041063
:100110000D0204100D0204100D0204100D02041053
:100120000D0204100D0204100D0204100D02041043
:100130000D0204100D0204100D0204100D02041033
:10014000950604100D0204100D0204100D02041097
:100150000D0204100D0204100D0204100D02041013
:100160000D0204100D0204100D0204100D02041003
:100170000D0204100D0204100D0204100D020410F3
:100180000D0204100D0204100D0204100D020410E3
:100190000D0204100D0204100D0204100D020410D3
:1001A0000D0204100D0204100D0204100D020410C3
:1001B0000D0204100D0204100D0204100D020410B3
:1001C0000D0204100D0204100D020410910604101B
:1001D0000D0204100D0204100348854600F068F873
:1001E0000048004759120410E82D01300C488047A0
:1001F0000C480047FEE77046EFF30881EFF30982F1
:10020000094B98470047FEE7FEE7FEE7FEE70000E0
:10021000ABBE064B7446984720477046F047000037
:1002200025120410D9010410ED03041081110410EB
:10023000F0B51FB40646002082B005464024019167
:1002400000901BE0019922460F46304600F042F82C
:10025000049A059B801A994110D3104619462246EC
:1002600000F016F8361A8F4101972246012000212E
:10027000009F00F00DF838184D4100902046641E94
:100280000028DFDC019B00982946324607B0F0BD0C
:1002900010B5202A04DB0146203A9140002010BD11
:1002A000914020239C1A0346E3401943904010BD1F
:1002B000064C0125064E05E0E36807CC2B430C3CB9
:1002C00098471034B442F7D3FFF78AFF201B04107D
:1002D000401B041010B5202A04DB0846203AD04009
:1002E000002110BD0B46D340D0402024A21A9140DB
:1002F0000843194610BD70B58C180578401C6B0773
:100300005B0F01D10378401C2A1106D10278401CF2
:1003100003E006780E70401C491C5B1EF9D12B07C8
:1003200005D40023521E0DD40B70491CFAE7037844
:10033000401CCB1A921C03E01D780D70491C5B1CFD
:10034000521EF9D5A142D8D3002070BD0448704791
:100350000348704700487047001BB70000487047CB
:100360000090D003F0B582B0019200230124032253
:1003700000921E462746B7400F4207D0019F9F407C
:10038000009D9D400268AA433A4302609B1C761C74
:10039000102EEFD102B0F0BD80B503A000F0AEFF8B
:1003A00011480121016080BD4E6F6E7365637572E7
:1003B00065204C4544205B4F46465D20200D0000E3
:1003C00080B503A000F09AFF07480021016080BDBE
:1003D0004E6F6E736563757265204C4544205B20DB
:1003E0004F4E5D2020200D002C480050F0B587B006
:1003F00014464027074017B1400700D40C46734805
:1004000001F0DEF972A001F0DBF901231E07A169FA
:1004100008463040C0190A8804D19A4800F06EFF9F
:10042000994803E07548824208D1954801F0C8F91F
:1004300000F02EF9954801F0C3F9FEE7100B0528EE
:10044000069303D110050CD56E480BE04EF2000365
:10045000134046F20005AB4217D110051BD5694881
:100460001AE06748059010091C250540605995065B
:100470006B0F9D006559451907201040834220D11C
:100480006B4621C36148059B3CE0092827D008281A
:1004900031D11005E3D45A48039007201040950647
:1004A0006B0F04939D00655905955505ED0E059B51
:1004B0005D19049B98420BD16B4621C35348039BA3
:1004C00020E0800020586B4621C34F48059B19E06F
:1004D000800020586B4621C34B48039B12E09009D3
:1004E0001C230340E058D3B25D186B4621C31005AE
:1004F00006D5444B05E046A0114600F0FFFE97E705
:100500003F4B414800F0FAFE8FB1B54290D900212F
:100510004848494A43689B199D4203D303699B1984
:100520009D4233D30C30491C9142F3D380E7002124
:100530004048414A43689D4202D30469A5420BD317
:100540009B199D4203D303699B199D4211D30C3023
:10055000491C9142EED36BE7017A1F220A40069BA9
:10056000934049098900354A89580B421BD03549C7
:100570001AE0017A1F220A40069B9340490989002C
:100580002E4A89580B4214D02E4913E0017A1F22BB
:100590000A40069B934049098900284A89580B4222
:1005A0000DD028490CE02649026827A000F0A6FEDD
:1005B0003EE723490268304800F0A0FE38E72049B2
:1005C00002682E4800F09AFE32E7C046181904105F
:1005D000202020202020202020202020202020201B
:1005E000202020202020203C3C3C20486172644692
:1005F00061756C74203E3E3E00000000ABBE000002
:10060000D01A0410CC1A0410801804105F180410BB
:100610002020556E657870656374656420696E731B
:100620007472756374696F6E3A203078253034784F
:10063000200A00000C2001305303000000F00240AB
:100640000F1B0410161B04102020496C6C65676199
:100650006C2061636365737320746F20257320259C
:100660007320696E204E6F6E7365637572652063CB
:100670006F64652E0A00000010180410A218041000
:10068000EA1A0410E51804105C1904101819041073
:10069000FEE7000070B582B0314D2846243800686E
:1006A000C00705D028462C38016801220A430260A1
:1006B000286801900198C00703D02A4801210170E1
:1006C00029600198C00529D50024009440F200500B
:1006D00002E00099491C009100998142F9DB40F247
:1006E0000016286801900198C0030CD425A001F0E1
:1006F00067F8294C204640F2001100F04FFA2046DE
:1007000000F084FA09E018A001F05AF81C480460CF
:1007100044608460C460046144612E600198800775
:1007200005D50198000700D501980220286001989E
:10073000800407D542F2000418A001F041F82868AF
:10074000204328600198C00407D541F200041BA093
:1007500001F036F828682043286002B070BDC0461A
:100760002CD80050E52501300A2A2A2A2A2A20639B
:100770006172642072656D6F766520210000000053
:10078000602301302A2A2A2A2A20636172642069A0
:100790006E7365727420210000D000502A2A2A2A24
:1007A0002A204953523A206461746120696E207492
:1007B000696D656F75742021000000002A2A2A2ABD
:1007C0002A204953523A20726573706F6E73652008
:1007D000696E2074696D656F7574202100000000DA
:1007E00010B50146134A835801205B0007D51A4A09
:1007F0008958C90309D5E5490020087210BD8A1837
:10080000830712681A4203D010BDE049087210BD78
:1008100040F6200288588023184388500E48085814
:10082000012424040440200CF64C20728C589C4374
:100830008C5010BD2808000040F620014118064ADF
:10084000801840220B6813430B600B685B06FCD4D6
:1008500003681B06F6D570472C080000F0B585B07C
:100860000446E84E7268092101AB00F077FA30685F
:10087000C11E40F200270198012918D8800F0328D3
:1008800021D372680721002520462B4600F006FA86
:1008900040F208402A492150781E2A496050082118
:1008A00020462A4600F098FA90B305B0F0BD800FBC
:1008B00002981AD001A949898006800A08184002C6
:1008C000C019410021E003988103490F04228A40A6
:1008D000800F02998B051B0D1818401C504309030B
:1008E000090F8840810A400A25E003998A03520FC4
:1008F00004239340890F8205120D8918491C59431E
:100900000003000F8140880A490AF160306114E059
:100910000B4D07210022204600F094FA40F62000FB
:10092000215840220A432250201801684906FCD46D
:10093000D42028584108F0603161776105B0F0BDDE
:100940009023013038080000F0B58BB0064640F225
:10095000001740F200112C3100F07CFB40F6200023
:10096000315820220A4332503018F74C217A02685D
:10097000920605D50029FAD1F44D28460BB0F0BDFA
:10098000002130460A4600F05DFA41F2000001E025
:100990000A98401E0A900A980028F9D1EC480125CF
:1009A00005707B480490049B40F2001255320821E8
:1009B000304600F073F90A900A980028029534D066
:1009C000002130460A4600F03DFA0A9702E00A98F4
:1009D000401E0A900A980028F9D1049B372100256F
:1009E00030462A4600F05AF90A900A9802284ED159
:1009F0003046002603903146324600F023FA0A972B
:100A000002E00A98401E0A900A980028F9D1D24DB7
:100A100002992970049B604A039800F03FF902286C
:100A20003ED12660EB48451CA7E7049B37210022F6
:100A3000304600F033F9C8480570049B2921564A16
:100A4000304600F02BF940F630017058020218D4FD
:100A5000701803900298C40537270025049B304680
:100A600039462A4600F01AF90120BB490870049B58
:100A700029213046484A00F011F9039800682042C5
:100A8000ECD0400209D5029D2A46EB4C53E00A986F
:100A900008B32560E948451D6FE70222E64C49E0AE
:100AA00040F63001039840580202029F3A4C0ED49F
:100AB000039840180190FE052F70049B0398394657
:100AC000224600F0EBF8019800683042F4D0400272
:100AD0002DD504222CE0A048029D0570049B2921FD
:100AE0002C4A304600F0DAF840F630003158022245
:100AF000090220D4019230180390EC053725002715
:100B0000049B304629463A4600F0C8F802989249BC
:100B10000870049B292130461E4A00F0BFF8039854
:100B200000682042ECD0D84C029D019A03E00322D9
:100B3000D54C039E029D22600221002205AB304667
:100B400000F00CF92068C01E01280BD830462E0496
:100B50000321002532462B4600F0A0F8099060B131
:100B6000099D0AE70321002530462A462B4600F05E
:100B700095F8099018B1099DFFE66660FDE640F61C
:100B800030003058000A00046060F6E6602301304F
:100B9000FFFF0F000080FF000080FF4070B540F2B3
:100BA000004202238350851840F6000282182C6808
:100BB000A407FCD401242C60032515601568ED07FB
:100BC000FCD1B14D00262E606E60AE60EE602E61ED
:100BD0006E6113600C4BC558A407890501D5A54368
:100BE00000E02543C550C15840F200140C43C450E6
:100BF000116A44F2000001431162116A0142FCD102
:100C000070BDC046602301302808000070B504465E
:100C10001E480025255040F6200021580F221206BC
:100C2000914321502158092212060A43225021588B
:100C3000FF221204914321502158012632040A4315
:100C40002250215848F20002914321502046FFF7DC
:100C5000C7FD48B12046FFF777FE88B98A4800688B
:100C6000032803D10B4902E0884870BD084900F011
:100C7000F1F92046FFF7F2FD204600F009F900B136
:100C800070BD05480660284670BDC04604080000D7
:100C9000A8610000204E000078230130B0B5784CE8
:100CA000025140F620028458264D2540090229436E
:100CB000C91C81508118E34A127A53B1DB430C6896
:100CC000A4070ED55B1C26D0002AF8D16F49084630
:100CD000B0BD0B689B0704D5002AFAD16B490846C2
:100CE000B0BD1B490A78012A0BD11A4A8258D2B2E8
:100CF000552A06D040F6300282580F231340012BAC
:100D00001AD1154A117871B1002111704C4A022391
:100D100083500846B0BD086844F2000202430A60EE
:100D200002210846B0BD46494058400701D5002081
:100D3000B0BD5648801DB0BD002008705349093130
:100D40000846B0BDFCC0FFFF602301301001FFFF6B
:100D50008423013034080000E425013070B586B0EA
:100D60001C46054646482A5040F620002A58184B93
:100D7000134009021943113129502818B149097A41
:100D80000268D20604D50029FAD1404806B070BDE9
:100D90002B482858400703D43C48801D06B070BD3E
:100DA0000026A85900F0A0F901A98851361D142E7B
:100DB000F7D10020014601AA53581B025218D279DC
:100DC000D2186250091D1029F5D106B070BDC04679
:100DD000EEC0FFFF1001FFFF10B5294BC25040F6D7
:100DE00020028358134C1C4009022143C91D815025
:100DF0008118944A137A0C68A40703D5002BFAD102
:100E0000224810BD127A0B685B0703D5002AFAD17D
:100E10001E4810BD0A4A815849071C4901D4881D43
:100E200010BD80180068000701D5002010BDC81D46
:100E300010BDC046F8C0FFFF602301301001FFFF66
:100E40002C08000010B581B0002300930C4BC25059
:100E500040F6200283580B4C1C4009022143491CD8
:100E600081508158C90708D080187649097A074A05
:100E700001B900920368DB07FAD1009801B010BDF8
:100E800024080000FEC0FFFF602301301001FFFFB7
:100E9000F0B581B004466B4E7268002300930725BD
:100EA0002946FFF7FBFE009018B1009D284601B0CF
:100EB000F0BD2046FFF7C0FC3068401E032848D82C
:100EC000810001A251188F4600F006B800F015B855
:100ED00000F024B800F029B840F20840A44F275091
:100EE000A44825507268372100232046FFF7D6FE1C
:100EF0000090002850D0009DD8E740F208409C495F
:100F000021509C4825507268372100232046FFF766
:100F1000C5FE0090002852D0009DC7E740F6200093
:100F2000215848F20002914321500621464A0023ED
:100F30002046FFF7B3FE009008B1009DB6E72046BB
:100F4000FFF77AFC40F62000215848F200020A43DD
:100F500022503E4D6A1C102100232046FFF79EFEC2
:100F6000009008B1009DA1E740F6200026188148B6
:100F700025500721002520462A46FFF763FF3068E9
:100F800040210143316030684006FCD4304821588C
:100F900001220A43225089E740F2004020180168EC
:100FA00002220A43026001688907FCD4332100222F
:100FB0002046FFF711FF009050B1009D76E73321E6
:100FC00000222046FFF708FF0090C8B1009D6DE7A2
:100FD00038780F2101400F2908D1204600F086F80B
:100FE0000090009810B93F4900F034F8726837213A
:100FF00000232046FFF752FE009058B1009D55E7B0
:101000007268372100232046FFF748FE009060B148
:10101000009D4BE70621022200232046FFF73EFEFB
:10102000009000288ED0009D40E706210222002378
:101030002046FFF733FE0090002800D182E7009D94
:1010400034E7C046602301300001B703FF01000010
:1010500028080000B0B50C46FFF7DFF8C0003AD40E
:101060001D4D2846103800688002800F012805D0E9
:10107000022806D0032807D118480BE0FFF76EF9C5
:1010800004E0FFF765F901E0FFF764F940F2E831A9
:10109000B0FBF1F01249086012498C4200D30C46B3
:1010A000B0FBF4F14C43001B00D0491C40F200108F
:1010B000FF2902D80029084604D0FF2109060006AE
:1010C000401800E00020FF2109062A688A432A60B0
:1010D000296801432960B0BD20020040E02E0000D5
:1010E0008023013050C3000000BA7047F0B581B0D2
:1010F00004460020009040F208401D4E26501D4D31
:101100003F27675106211C4A2046FFF765FE0090E5
:10111000012310B1184601B0F0BD40F208427078CA
:10112000317809020818F5D0707F317F090208185C
:10113000F0D16019A1180E60076006210F4A204601
:101140001D46FFF749FE2B4600900028E2D140F6ED
:101150002000215840220A432250201801684906E5
:10116000FCD4707831780902081843424341D1E732
:10117000902301303808000001FFFF0001FFFF80CD
:1011800000207047C046C0460121CA0506498B6948
:101190001342FCD10860C0B20A2804D18869104209
:1011A000FCD10D20086070470000075010B5401EAC
:1011B000010E07D1044C606000F03CF80020A060F4
:1011C0000720206010BDC04610E000E0074802681C
:1011D000511C01601E2A02D01AB9FFF7F1B8FFF7BF
:1011E000DBB83D2901D30021016070477C23013029
:1011F00080B5FFF7B3F807490860FFF7A7F83E4945
:101200000860054940180549B0FBF1F00449086041
:1012100080BDC0460420013020A1070040420F00DD
:1012200000200130014802490160704708ED00E0EC
:1012300000000410FF20000603490A6882430320CF
:10124000800710180860704720ED00E010B50446D4
:10125000FFF798FF204610BD0A2000F0A9FA0C48BD
:1012600000F0AEFA0BA000F0ABFA16A000F0A8FA5E
:101270002048012240F60041FFF774F8FFF7B8FF5D
:101280001D4800686421B0FBF1F0FFF78FFFFEE717
:10129000E01704107C202020202020202020202067
:1012A0004E6F6E7365637572652069732072756E1B
:1012B0006E696E67202E2E2E2020202020202020D8
:1012C00020207C002B2D2D2D2D2D2D2D2D2D2D2D48
:1012D0002D2D2D2D2D2D2D2D2D2D2D2D2D2D2D2D3E
:1012E0002D2D2D2D2D2D2D2D2D2D2D2D2D2D2D2D2E
:1012F0002D2D2B0000400050082001300FB410B5F8
:1013000003A9044B044A029800F018F810BC08BC6A
:1013100004B018474D1204109025013002E008C8AF
:10132000121F08C1002AFAD170477047002001E05F
:1013300001C1121F002AFBD170470000FFB591B018
:101340000F460546002606E025280AD0149A139970
:1013500090476D1C761C28780028F5D1304615B0D2
:10136000F0BD002400940121F34A029400E00443FC
:101370006D1C2B780846203B98401042F7D1287806
:101380002A280ED0022128780246303A092A15D898
:10139000009A0A235A43303A80180C436D1C00907F
:1013A000F1E701CF0090002805DA01204003044353
:1013B000009840420090022004436D1C28782E289B
:1013C00015D10420044368786D1C2A280AD101CF66
:1013D0006D1C02900BE002990A22514330394018EB
:1013E0006D1C02902878014630390929F3D92878F4
:1013F0006C2810D006DC4C281AD068280ED06A2839
:1014000017D104E0742813D07A2812D110E00120FB
:10141000400504430CE00121090501E00321090511
:101420000C436978814203D10120000524186D1C0A
:101430006D1C287803906E281ED00CDC632831D0F8
:1014400004DC00288AD0582811D1B2E064287BD06F
:1014500069280CD178E073282DD004DC6F2870D077
:10146000702804D1A7E075286CD078286BD0149A26
:1014700013999047761C62E06002400F022807D063
:1014800003280AD0042838680AD006603F1D56E0B9
:101490003868F11706604160F8E738680680F5E7BC
:1014A0000670F3E73878694608740020487404A889
:1014B0000390012003E0386803900020C0433F1DE3
:1014C00061070FD5002101E00199491C029A0191A1
:1014D000914213DA8142F7DB019A0399895C002972
:1014E000F2D10BE0002101E00199491C01918142F8
:1014F000FADB019A0399895C0029F5D101990098DA
:10150000139A401A00902146149B00F03BF9019970
:101510008019461807E0039803990078491C039145
:10152000149A139990470198401E0190401CF2D1E3
:101530002146149B139A009800F014F986196D1C2B
:1015400009E741E033E034E00A20002104900591EE
:101550006002410F022905D001CFC217944603292A
:1015600005D007E0FF1DFF08FF0003CF06E000B233
:10157000C2179446042902D140B2C1178C460022FA
:101580006146944506DA0A460021404291418C4664
:101590002D2102E0210504D52B216A461176012177
:1015A00003E0E10701D02021F7E7019154E00A2090
:1015B0000BE0102009E010200490002104200443D7
:1015C00008200591029003E0082000210591049075
:1015D0006002410F022905D001CF00229446032961
:1015E00006D006E0FF1DFF08FF0003CF8C4603E096
:1015F00080B2042900D1C0B20021019121072BD56E
:101600000399702906D0049A1021059B4A401A4379
:1016100005D00EE040216A461176012108E06146BE
:10162000014306D030216A46117603995176022192
:101630000191049A0821059B4A401A430CD1614646
:10164000014301D1610707D530216A461176012196
:1016500001910299491E02910399582904D037A19A
:1016600003910FA90F910DE039A1F9E76146059BA0
:10167000049AFEF7DDFD039B8C469B5C0F9A521E7D
:101680000F92137061460143F0D10F9807A9081A11
:1016900020300390600704D50120000484430298A1
:1016A00001E0012002900399884201DD401A00E028
:1016B000002041180290019809180098401A0090E3
:1016C000E00306D42146149B139A009800F05AF8C0
:1016D00086190020049008E006A9085C149A139962
:1016E00090470498401C761C049001998842F3DBD3
:1016F000E0030CD52146149B139A009800F042F8A1
:10170000861904E0149A302013999047761C0299A8
:10171000481E02900029F5DC08E00F980F99007828
:10172000491C0F91149A13999047761C0399481EEF
:1017300003900029F1DCFBE6092801003031323347
:1017400034353637383961626364656600000000FD
:1017500030313233343536373839414243444546E7
:1017600000000000F8B5044600251E461746880410
:1017700004D405E039462020B0476D1C641EF9D51D
:101780002846F8BDFFB50446002581B01E46C803B3
:1017900001D5302700E02027880404D505E038462D
:1017A0000399B0476D1C641EF9D5284605B0F0BDFD
:1017B00010B50249FFF74AFD10BD00009025013029
:1017C00010B5044601E0FFF741FD2078641C034991
:1017D0000028F8D10A20FFF739FD10BD902501300F
:1017E0002B2D2D2D2D2D2D2D2D2D2D2D2D2D2D2D2B
:1017F0002D2D2D2D2D2D2D2D2D2D2D2D2D2D2D2D19
:101800002D2D2D2D2D2D2D2D2D2D2D2D2D2D2B0037
:101810002020496C6C6567616C206163636573733C
:1018200020746F20257320257320696E204E6F6E03
:1018300073656375726520636F64652E0A49742051
:101840006D61792062652073657420617320736512
:101850006375726520495020686572652E0A002004
:10186000205B3078253038785D203078253034782A
:1018700020257320522564205B307825785D0A008E
:1018800020205B3078253038785D20307825303462
:10189000782025732030782578205B307825785D96
:1018A0000A002020496C6C6567616C20746F20759C
:1018B0007365204E6F6E7365637572652061646435
:1018C0007265737320746F20616363657373202581
:1018D0007320257320696E205365637572652063DC
:1018E0006F64650A0020204E6F6E2D7365637572FC
:1018F00065204350552074727920746F206665749A
:1019000063682073656375726520636F6465206921
:101910006E20307825780A0021212D2D2D2D2D2D9A
:101920002D2D2D2D2D2D2D2D2D2D2D2D2D2D2D2DE7
:101930002D2D2D2D2D2D2D2D2D2D2D2D2D2D2D2DD7
:101940002D2D2D2D2D2D2D2D2D2D2D2D2D2D2D2DC7
:101950002D2D2D2D2D2D2D2D2D21210020205472AA
:101960007920746F20636865636B204E5343207247
:101970006567696F6E206F722053415520736574DF
:1019800074696E67732E0050444D413000493243F4
:10199000300044414330005343300053444830004A
:1019A0005553434930005145493000515350493057
:1019B000004250574D30004550574D300043414E86
:1019C00030004543415030004932533000554152B8
:1019D00054300041434D50303100544D52303100AD
:1019E00050444D41310049324331004441433100BC
:1019F0005343310055534349310051454931005358
:101A0000504931004250574D31004550574D31003B
:101A1000454341503100554152543100493243321F
:101A20000053433200535049320055415254320062
:101A3000544D5232330053504933005541525433C0
:101A400000554152543400554152543500475049D5
:101A50004F41005041004750494F4200504200451D
:101A600041444300464D43004750494F43005043D3
:101A700000435243005254430055534244004750E0
:101A8000494F44005044004750494F4500504500DD
:101A90004750494F460050460054524E4700475069
:101AA000494F47005047004F5447005553424800A4
:101AB0004750494F480050480045424900434C4B6D
:101AC000004750494F5F444243544C004C4452003D
:101AD00053545200535953005757445400494E54DD
:101AE000004352505400534355002020457865630D
:101AF00075746520424B505420776974686F757413
:101B00002049434520636F6E6E65637465640053BE
:101B10006563757265004E6F6E73656375726500FF
:101B2000401B04100020013060030000F602041086
:101B3000401D041060230130880A00002C1304109B
:101B400042302C6CDC020435D41A041042402ABD09
:101B50000C4A020C2ADD0C4A030C2A4D0C124033AD
:101B600040E01A560C1A400C32E11A680C1A800C2C
:101B700032E21A7E0C1AC00C32E32A87301241334B
:101B800040E42A9030190C32E52A9E30190C32E6D6
:101B90002AB030190C32E72AC1244A446C2A533C3B
:101BA0004A486C2A5C18590C2A6E3C590C2A843C11
:101BB000590C2A8D304A490C2A9630590C2AA430E7
:101BC000590C2AB630590C1B8719304A806C3AE000
:101BD0000C340140182AAB4812903340092A640C97
:101BE0004AC0242A9B2412D033400D2AB918111B55
:101BF000014005112AE60C3BF002242A710C351035
:101C00000340312AE10C35200340323AD9303A04FE
:101C1000242AD80C4A010C3A7530340440412A5F1A
:101C20000C35300440432AD36C35500440452A9289
:101C30000C35700440471AEB0C5A400C3AC8B434C7
:101C40000440482AA73C35D004404D2ADA18113AFE
:101C500005603A3060340540513AB7303405405899
:101C60003A0AE4340540592AB11835A005405A2AE9
:101C7000041835B005405B3AAB48340640602AACE6
:101C80000C35100640612AFF0C35200640623A25CB
:101C9000B4340640632A360C35400640643ACD3CE5
:101CA000340740703A1684340740712A2A0C3520D4
:101CB0000740723A3B3C340740733A413C3407409A
:101CC000742A470C35500740753A8D4834084080D7
:101CD0003AE684340840813A1C48340840823A97F6
:101CE00024340940903AF024340940913A212434B4
:101CF0000940923ABD24340A40A03AA60C340B4065
:101D0000B03AFA30340B40B12AC20C35400B40B423
:101D10003A1084340B40B52A990C35900B40B92AFF
:101D2000790C11340C40C03AA048340D40D03AF43C
:101D300048840D40D144200D400000000000000008
:04000005100401D909
:00000001FF
